{
  "address": "0x2da25F9be5F874F6A14ADa63a206C2B9e6f4b199",
  "abi": [
    {
      "inputs": [],
      "stateMutability": "nonpayable",
      "type": "constructor"
    },
    {
      "anonymous": false,
      "inputs": [
        {
          "indexed": true,
          "internalType": "uint256",
          "name": "examId",
          "type": "uint256"
        },
        {
          "indexed": true,
          "internalType": "address",
          "name": "student",
          "type": "address"
        },
        {
          "indexed": false,
          "internalType": "uint256",
          "name": "submitTime",
          "type": "uint256"
        }
      ],
      "name": "AnswerSubmitted",
      "type": "event"
    },
    {
      "anonymous": false,
      "inputs": [
        {
          "indexed": true,
          "internalType": "uint256",
          "name": "examId",
          "type": "uint256"
        },
        {
          "indexed": true,
          "internalType": "address",
          "name": "teacher",
          "type": "address"
        },
        {
          "indexed": false,
          "internalType": "string",
          "name": "title",
          "type": "string"
        }
      ],
      "name": "ExamCreated",
      "type": "event"
    },
    {
      "anonymous": false,
      "inputs": [
        {
          "indexed": true,
          "internalType": "uint256",
          "name": "examId",
          "type": "uint256"
        },
        {
          "indexed": true,
          "internalType": "address",
          "name": "student",
          "type": "address"
        },
        {
          "indexed": true,
          "internalType": "address",
          "name": "teacher",
          "type": "address"
        }
      ],
      "name": "ExamGraded",
      "type": "event"
    },
    {
      "anonymous": false,
      "inputs": [
        {
          "indexed": true,
          "internalType": "uint256",
          "name": "examId",
          "type": "uint256"
        }
      ],
      "name": "ExamPublished",
      "type": "event"
    },
    {
      "anonymous": false,
      "inputs": [
        {
          "indexed": true,
          "internalType": "uint256",
          "name": "examId",
          "type": "uint256"
        },
        {
          "indexed": true,
          "internalType": "address",
          "name": "student",
          "type": "address"
        }
      ],
      "name": "GradePublished",
      "type": "event"
    },
    {
      "inputs": [
        {
          "internalType": "uint256",
          "name": "examId",
          "type": "uint256"
        },
        {
          "internalType": "enum AnonExam.QuestionType",
          "name": "questionType",
          "type": "uint8"
        },
        {
          "internalType": "string",
          "name": "questionText",
          "type": "string"
        },
        {
          "internalType": "string[]",
          "name": "options",
          "type": "string[]"
        },
        {
          "internalType": "externalEuint32",
          "name": "correctAnswerInput",
          "type": "bytes32"
        },
        {
          "internalType": "bytes",
          "name": "correctAnswerProof",
          "type": "bytes"
        },
        {
          "internalType": "externalEuint8",
          "name": "pointsInput",
          "type": "bytes32"
        },
        {
          "internalType": "bytes",
          "name": "pointsProof",
          "type": "bytes"
        }
      ],
      "name": "addQuestion",
      "outputs": [],
      "stateMutability": "nonpayable",
      "type": "function"
    },
    {
      "inputs": [
        {
          "internalType": "address",
          "name": "teacher",
          "type": "address"
        }
      ],
      "name": "authorizeTeacher",
      "outputs": [],
      "stateMutability": "nonpayable",
      "type": "function"
    },
    {
      "inputs": [
        {
          "internalType": "address",
          "name": "",
          "type": "address"
        }
      ],
      "name": "authorizedTeachers",
      "outputs": [
        {
          "internalType": "bool",
          "name": "",
          "type": "bool"
        }
      ],
      "stateMutability": "view",
      "type": "function"
    },
    {
      "inputs": [
        {
          "internalType": "uint256",
          "name": "examId",
          "type": "uint256"
        },
        {
          "internalType": "address",
          "name": "student",
          "type": "address"
        }
      ],
      "name": "autoGradeMultipleChoice",
      "outputs": [],
      "stateMutability": "nonpayable",
      "type": "function"
    },
    {
      "inputs": [
        {
          "internalType": "uint256",
          "name": "examId",
          "type": "uint256"
        }
      ],
      "name": "calculateClassAverage",
      "outputs": [
        {
          "internalType": "euint64",
          "name": "",
          "type": "bytes32"
        }
      ],
      "stateMutability": "nonpayable",
      "type": "function"
    },
    {
      "inputs": [
        {
          "internalType": "string",
          "name": "title",
          "type": "string"
        },
        {
          "internalType": "string",
          "name": "description",
          "type": "string"
        },
        {
          "internalType": "uint256",
          "name": "startTime",
          "type": "uint256"
        },
        {
          "internalType": "uint256",
          "name": "endTime",
          "type": "uint256"
        },
        {
          "internalType": "uint256",
          "name": "duration",
          "type": "uint256"
        },
        {
          "internalType": "uint256",
          "name": "maxScore",
          "type": "uint256"
        }
      ],
      "name": "createExam",
      "outputs": [
        {
          "internalType": "uint256",
          "name": "",
          "type": "uint256"
        }
      ],
      "stateMutability": "nonpayable",
      "type": "function"
    },
    {
      "inputs": [
        {
          "internalType": "uint256",
          "name": "",
          "type": "uint256"
        },
        {
          "internalType": "uint256",
          "name": "",
          "type": "uint256"
        }
      ],
      "name": "examStudents",
      "outputs": [
        {
          "internalType": "address",
          "name": "",
          "type": "address"
        }
      ],
      "stateMutability": "view",
      "type": "function"
    },
    {
      "inputs": [
        {
          "internalType": "uint256",
          "name": "",
          "type": "uint256"
        }
      ],
      "name": "exams",
      "outputs": [
        {
          "internalType": "uint256",
          "name": "examId",
          "type": "uint256"
        },
        {
          "internalType": "string",
          "name": "title",
          "type": "string"
        },
        {
          "internalType": "string",
          "name": "description",
          "type": "string"
        },
        {
          "internalType": "address",
          "name": "teacher",
          "type": "address"
        },
        {
          "internalType": "uint256",
          "name": "startTime",
          "type": "uint256"
        },
        {
          "internalType": "uint256",
          "name": "endTime",
          "type": "uint256"
        },
        {
          "internalType": "uint256",
          "name": "duration",
          "type": "uint256"
        },
        {
          "internalType": "uint8",
          "name": "questionCount",
          "type": "uint8"
        },
        {
          "internalType": "bool",
          "name": "isPublished",
          "type": "bool"
        },
        {
          "internalType": "enum AnonExam.ExamStatus",
          "name": "status",
          "type": "uint8"
        },
        {
          "internalType": "uint256",
          "name": "maxScore",
          "type": "uint256"
        }
      ],
      "stateMutability": "view",
      "type": "function"
    },
    {
      "inputs": [
        {
          "internalType": "uint256",
          "name": "examId",
          "type": "uint256"
        }
      ],
      "name": "getExamInfo",
      "outputs": [
        {
          "internalType": "string",
          "name": "title",
          "type": "string"
        },
        {
          "internalType": "string",
          "name": "description",
          "type": "string"
        },
        {
          "internalType": "address",
          "name": "teacher",
          "type": "address"
        },
        {
          "internalType": "uint256",
          "name": "startTime",
          "type": "uint256"
        },
        {
          "internalType": "uint256",
          "name": "endTime",
          "type": "uint256"
        },
        {
          "internalType": "uint256",
          "name": "duration",
          "type": "uint256"
        },
        {
          "internalType": "uint8",
          "name": "questionCount",
          "type": "uint8"
        },
        {
          "internalType": "bool",
          "name": "isPublished",
          "type": "bool"
        },
        {
          "internalType": "enum AnonExam.ExamStatus",
          "name": "status",
          "type": "uint8"
        }
      ],
      "stateMutability": "view",
      "type": "function"
    },
    {
      "inputs": [
        {
          "internalType": "uint256",
          "name": "examId",
          "type": "uint256"
        }
      ],
      "name": "getExamStudents",
      "outputs": [
        {
          "internalType": "address[]",
          "name": "",
          "type": "address[]"
        }
      ],
      "stateMutability": "view",
      "type": "function"
    },
    {
      "inputs": [
        {
          "internalType": "uint256",
          "name": "examId",
          "type": "uint256"
        },
        {
          "internalType": "uint8",
          "name": "questionIndex",
          "type": "uint8"
        }
      ],
      "name": "getQuestionInfo",
      "outputs": [
        {
          "internalType": "enum AnonExam.QuestionType",
          "name": "questionType",
          "type": "uint8"
        },
        {
          "internalType": "string",
          "name": "questionText",
          "type": "string"
        },
        {
          "internalType": "string[]",
          "name": "options",
          "type": "string[]"
        }
      ],
      "stateMutability": "view",
      "type": "function"
    },
    {
      "inputs": [
        {
          "internalType": "uint256",
          "name": "examId",
          "type": "uint256"
        },
        {
          "internalType": "address",
          "name": "student",
          "type": "address"
        },
        {
          "internalType": "uint8",
          "name": "answerIndex",
          "type": "uint8"
        }
      ],
      "name": "getStudentAnswer",
      "outputs": [
        {
          "internalType": "euint32",
          "name": "",
          "type": "bytes32"
        }
      ],
      "stateMutability": "view",
      "type": "function"
    },
    {
      "inputs": [
        {
          "internalType": "uint256",
          "name": "examId",
          "type": "uint256"
        },
        {
          "internalType": "address",
          "name": "student",
          "type": "address"
        }
      ],
      "name": "getStudentAnswerCount",
      "outputs": [
        {
          "internalType": "uint256",
          "name": "",
          "type": "uint256"
        }
      ],
      "stateMutability": "view",
      "type": "function"
    },
    {
      "inputs": [
        {
          "internalType": "uint256",
          "name": "examId",
          "type": "uint256"
        },
        {
          "internalType": "address",
          "name": "student",
          "type": "address"
        }
      ],
      "name": "getStudentGrade",
      "outputs": [
        {
          "internalType": "euint64",
          "name": "encryptedScore",
          "type": "bytes32"
        },
        {
          "internalType": "euint8",
          "name": "encryptedGradeLevel",
          "type": "bytes32"
        },
        {
          "internalType": "bool",
          "name": "isPublished",
          "type": "bool"
        },
        {
          "internalType": "string",
          "name": "comment",
          "type": "string"
        }
      ],
      "stateMutability": "view",
      "type": "function"
    },
    {
      "inputs": [
        {
          "internalType": "uint256",
          "name": "examId",
          "type": "uint256"
        },
        {
          "internalType": "address",
          "name": "student",
          "type": "address"
        }
      ],
      "name": "getSubmissionStatus",
      "outputs": [
        {
          "internalType": "bool",
          "name": "isSubmitted",
          "type": "bool"
        },
        {
          "internalType": "uint256",
          "name": "submitTime",
          "type": "uint256"
        },
        {
          "internalType": "bool",
          "name": "isGraded",
          "type": "bool"
        }
      ],
      "stateMutability": "view",
      "type": "function"
    },
    {
      "inputs": [],
      "name": "getTotalExams",
      "outputs": [
        {
          "internalType": "uint256",
          "name": "",
          "type": "uint256"
        }
      ],
      "stateMutability": "view",
      "type": "function"
    },
    {
      "inputs": [
        {
          "internalType": "uint256",
          "name": "",
          "type": "uint256"
        },
        {
          "internalType": "address",
          "name": "",
          "type": "address"
        }
      ],
      "name": "grades",
      "outputs": [
        {
          "internalType": "uint256",
          "name": "examId",
          "type": "uint256"
        },
        {
          "internalType": "address",
          "name": "student",
          "type": "address"
        },
        {
          "internalType": "euint64",
          "name": "encryptedScore",
          "type": "bytes32"
        },
        {
          "internalType": "euint8",
          "name": "encryptedGradeLevel",
          "type": "bytes32"
        },
        {
          "internalType": "bool",
          "name": "isPublished",
          "type": "bool"
        },
        {
          "internalType": "uint256",
          "name": "gradedTime",
          "type": "uint256"
        },
        {
          "internalType": "string",
          "name": "teacherComment",
          "type": "string"
        }
      ],
      "stateMutability": "view",
      "type": "function"
    },
    {
      "inputs": [
        {
          "internalType": "uint256",
          "name": "examId",
          "type": "uint256"
        },
        {
          "internalType": "address",
          "name": "student",
          "type": "address"
        }
      ],
      "name": "hasAccessToExam",
      "outputs": [
        {
          "internalType": "bool",
          "name": "",
          "type": "bool"
        }
      ],
      "stateMutability": "view",
      "type": "function"
    },
    {
      "inputs": [
        {
          "internalType": "uint256",
          "name": "examId",
          "type": "uint256"
        },
        {
          "internalType": "address",
          "name": "student",
          "type": "address"
        },
        {
          "internalType": "externalEuint64",
          "name": "scoreInput",
          "type": "bytes32"
        },
        {
          "internalType": "bytes",
          "name": "scoreProof",
          "type": "bytes"
        },
        {
          "internalType": "string",
          "name": "comment",
          "type": "string"
        }
      ],
      "name": "manualGrade",
      "outputs": [],
      "stateMutability": "nonpayable",
      "type": "function"
    },
    {
      "inputs": [],
      "name": "protocolId",
      "outputs": [
        {
          "internalType": "uint256",
          "name": "",
          "type": "uint256"
        }
      ],
      "stateMutability": "pure",
      "type": "function"
    },
    {
      "inputs": [
        {
          "internalType": "uint256",
          "name": "examId",
          "type": "uint256"
        }
      ],
      "name": "publishExam",
      "outputs": [],
      "stateMutability": "nonpayable",
      "type": "function"
    },
    {
      "inputs": [
        {
          "internalType": "uint256",
          "name": "examId",
          "type": "uint256"
        },
        {
          "internalType": "address",
          "name": "student",
          "type": "address"
        }
      ],
      "name": "publishGrade",
      "outputs": [],
      "stateMutability": "nonpayable",
      "type": "function"
    },
    {
      "inputs": [
        {
          "internalType": "uint256",
          "name": "",
          "type": "uint256"
        },
        {
          "internalType": "uint8",
          "name": "",
          "type": "uint8"
        }
      ],
      "name": "questions",
      "outputs": [
        {
          "internalType": "uint256",
          "name": "examId",
          "type": "uint256"
        },
        {
          "internalType": "uint8",
          "name": "questionIndex",
          "type": "uint8"
        },
        {
          "internalType": "enum AnonExam.QuestionType",
          "name": "questionType",
          "type": "uint8"
        },
        {
          "internalType": "string",
          "name": "questionText",
          "type": "string"
        },
        {
          "internalType": "euint32",
          "name": "correctAnswer",
          "type": "bytes32"
        },
        {
          "internalType": "euint8",
          "name": "points",
          "type": "bytes32"
        }
      ],
      "stateMutability": "view",
      "type": "function"
    },
    {
      "inputs": [
        {
          "internalType": "address",
          "name": "",
          "type": "address"
        },
        {
          "internalType": "uint256",
          "name": "",
          "type": "uint256"
        }
      ],
      "name": "studentExamAccess",
      "outputs": [
        {
          "internalType": "bool",
          "name": "",
          "type": "bool"
        }
      ],
      "stateMutability": "view",
      "type": "function"
    },
    {
      "inputs": [
        {
          "internalType": "uint256",
          "name": "",
          "type": "uint256"
        },
        {
          "internalType": "address",
          "name": "",
          "type": "address"
        }
      ],
      "name": "submissions",
      "outputs": [
        {
          "internalType": "uint256",
          "name": "examId",
          "type": "uint256"
        },
        {
          "internalType": "address",
          "name": "student",
          "type": "address"
        },
        {
          "internalType": "uint256",
          "name": "submitTime",
          "type": "uint256"
        },
        {
          "internalType": "bool",
          "name": "isSubmitted",
          "type": "bool"
        },
        {
          "internalType": "euint64",
          "name": "totalScore",
          "type": "bytes32"
        },
        {
          "internalType": "bool",
          "name": "isGraded",
          "type": "bool"
        }
      ],
      "stateMutability": "view",
      "type": "function"
    },
    {
      "inputs": [
        {
          "internalType": "uint256",
          "name": "examId",
          "type": "uint256"
        },
        {
          "internalType": "externalEuint32[]",
          "name": "encryptedAnswersInput",
          "type": "bytes32[]"
        },
        {
          "internalType": "bytes[]",
          "name": "answersProof",
          "type": "bytes[]"
        }
      ],
      "name": "submitAnswers",
      "outputs": [],
      "stateMutability": "nonpayable",
      "type": "function"
    }
  ],
  "transactionHash": "0xed299b55e09dd161386c4aaf93dd4c4da3dda1cc9a2438f3614bd0d9b4a6a20f",
  "args": [],
  "numDeployments": 1,
  "solcInputHash": "e1d96924333813c6628d1c8532f938fa",
  "bytecode": "0x60806040523462000171575f60606200001762000175565b82815282602082015282604082015201526200003262000175565b606073687820221192c5b662b25367f70076a37bc79b6c9182815273848b0066793bcc60346da1f49049357399b8d59580602083015273a02cda4ca3a71d7c46997716f4283aa851c2881291826040820152731364cbbf2cdf5032c47d8226a6f6fbd2afcdacac938491015260018060a01b0319937f9e7b61f58c47dc699ac88507c4f5bb9f121c03808c5676a8078fe583e464970090858254161790557f9e7b61f58c47dc699ac88507c4f5bb9f121c03808c5676a8078fe583e464970190848254161790557f9e7b61f58c47dc699ac88507c4f5bb9f121c03808c5676a8078fe583e464970290838254161790557f9e7b61f58c47dc699ac88507c4f5bb9f121c03808c5676a8078fe583e464970391825416179055335f52600560205260405f20600160ff1982541617905560405161398e9081620001aa8239f35b5f80fd5b60405190608082016001600160401b038111838210176200019557604052565b634e487b7160e01b5f52604160045260245ffdfe6080806040526004361015610012575f80fd5b60e05f35811c918263010ff1d914612fb6575081630737fba714612f6657816308e412cb14612e835781630d60a97214612da05781630e4dbf5c14612d185781631fe921fa14612c74578163226c4d5f1461269157816339274fdd146125375781634198cb3f1461245757816351befe10146123bd5781635b776fd9146123695781636160521914611ea8578163653bde2c14611d845781636ca40e3914611ce5575080636fa086fa1461136157806390d14e4f14611151578063a70e004014611114578063aac67c6a14610faf578063adaa5f7b14610e3e578063bfc1711514610c9c578063c03a3c5714610c80578063c471da0414610c37578063ce61af2b146108f5578063da1f12ab146108d9578063eb5f2b98146108525763f7692d791461013c575f80fd5b346107985761010036600319011261079857600360243510156107985760443567ffffffffffffffff811161079857610179903690600401613223565b60643567ffffffffffffffff811161079857366023820112156107985780600401356101a4816130ce565b916101b260405193846130ac565b8183526024602084019260051b820101903682116107985760248101925b82841061082257858560a43567ffffffffffffffff8111610798576101f9903690600401613241565b91909260e43567ffffffffffffffff81116107985761021c903690600401613241565b94600435151580610815575b6102319061326f565b6004355f5260016020526102566001600160a01b03600360405f2001541633146132bb565b6004355f52600160205260ff600760405f20015460081c166107d05761029b60209261029361028b6102e6945f9936916131dd565b6084356136b2565b9736916131dd565b6001600160a01b035f8051602061396283398151915254169060405196878094819363196d0b9b60e01b835260c4356004840152336024840152608060448401526084830190613031565b6002606483015203925af192831561078d575f9361079c575b506001600160a01b037f9e7b61f58c47dc699ac88507c4f5bb9f121c03808c5676a8078fe583e46497005416803b1561079857604051630f8e573b60e21b815260048101859052336024820152905f908290604490829084905af1801561078d5761077e575b506004355f52600160205260ff600760405f2001541690604051916103898361307c565b60043583526020830190808252604084019460243586526060850193845260808501528660a08501528560c08501526004355f52600260205260405f20905f5260205260405f20938351855560ff6001860192511682549151600381101561076a5761ff009060081b169161ffff1916171790555180519067ffffffffffffffff821161063a5761041d60028501546130e6565b601f8111610737575b50602090601f83116001146106c95761045692915f91836106be575b50508160011b915f199060031b1c19161790565b60028301555b60038201608082015180519068010000000000000000821161063a57825482845580831061064e575b50602001915f5260205f20915f905b82821061051b575050505060c08160a06005930151600485015501519101556004355f526001602052600760405f200180549260ff84169160ff8314610507576105059460ff60016104fb9501169060ff19161790556104f430826137be565b33906137be565b6104f430826137be565b005b634e487b7160e01b5f52601160045260245ffd5b805180519067ffffffffffffffff821161063a5761053986546130e6565b601f81116105ff575b50602090601f83116001146105935792610579836001959460209487965f926105885750508160011b915f199060031b1c19161790565b87555b01940191019092610494565b015190508e80610442565b90865f5260205f20915f5b601f19851681106105e7575083602093600196938796938794601f198116106105cf575b505050811b01875561057c565b01515f1960f88460031b161c191690558d80806105c2565b9192602060018192868501518155019401920161059e565b61062a90875f5260205f20601f850160051c81019160208610610630575b601f0160051c0190613459565b8a610542565b909150819061061d565b634e487b7160e01b5f52604160045260245ffd5b835f528260205f2091820191015b8181106106695750610485565b80610676600192546130e6565b80610683575b500161065c565b601f8111831461069857505f81555b8a61067c565b5f908282526106b5601f60208420920160051c8201858301613459565b81835555610692565b015190508780610442565b9190600285015f5260205f20905f935b601f198416851061071c576001945083601f19811610610704575b505050811b01600283015561045c565b01515f1960f88460031b161c191690558680806106f4565b818101518355602094850194600190930192909101906106d9565b61076490600286015f5260205f20601f850160051c8101916020861061063057601f0160051c0190613459565b86610426565b634e487b7160e01b5f52602160045260245ffd5b61078790613098565b84610365565b6040513d5f823e3d90fd5b5f80fd5b9092506020813d6020116107c8575b816107b8602093836130ac565b81010312610798575191846102ff565b3d91506107ab565b60405162461bcd60e51b815260206004820152601c60248201527f43616e6e6f74206d6f64696679207075626c6973686564206578616d000000006044820152606490fd5b505f546004351115610228565b833567ffffffffffffffff811161079857602091610847839260243691870101613223565b8152019301926101d0565b346107985760403660031901126107985760043561086e612ff0565b90801515806108ce575b6108819061326f565b5f5260036020526001600160a01b0360405f2091165f52602052606060405f2060ff6003820154169060ff6006600283015492015416906040519215158352602083015215156040820152f35b505f54811115610878565b34610798575f3660031901126107985760206040516127118152f35b3461079857604036600319011261079857600435610911612ff0565b81151580610c2c575b6109239061326f565b815f5260016020918183526001600160a01b039160039361094d848660405f2001541633146132bb565b855f5284815260405f209484841695865f52825260ff610974818360405f2001541661332d565b875f5281835260405f20875f52835280600660405f20015416610be757610999613825565b955f855b610a1f575b505050916109f79493916104f493885f5280825260405f20885f52825285600560405f200155885f52815260405f2090875f5252600660405f20019060ff198254161790556109f130846137be565b826137be565b33917fa35d37dcd82f9b14b272047e103ec827a193dc4ee9c87f2494dea154c77a6f735f80a4005b895f5285855282600760405f2001541683821690811015610be1576002865260405f20905f52855260405f20838782015460081c168581101561076a5715610a6d575b50850182168561099d565b8a5f999392995284865260405f208a5f528652610a9089600460405f200161301c565b905460048301549491871b1c8015610bd3575b8415610bc3575b5f8051602061396283398151915294848654166040519263f77f3f1d60e01b845260048401526024918284015289836064815f60449581878401525af196871561078d578a935f98610b92575b505f8760058098015492541660405197889586946307227b9160e21b865260048601528401525af193841561078d57889486935f91610b5a575b5091610b4a610b50928794610b44613825565b9161390e565b9061362d565b9992935050610a62565b9293505093508681813d8311610b8b575b610b7581836130ac565b8101031261079857518793859291610b4a610b31565b503d610b6b565b8481959299503d8311610bbc575b610baa81836130ac565b8101031261079857899251965f610af7565b503d610ba0565b9350610bcd613873565b93610aaa565b50610bdc613873565b610aa3565b506109a2565b60405162461bcd60e51b815260048101849052600e60248201527f416c7265616479206772616465640000000000000000000000000000000000006044820152606490fd5b505f5482111561091a565b34610798576040366003190112610798576001600160a01b03610c58613006565b165f52600760205260405f206024355f52602052602060ff60405f2054166040519015158152f35b34610798575f3660031901126107985760205f54604051908152f35b3461079857604036600319011261079857600435610cb8612ff0565b81151580610e33575b610cca9061326f565b6001600160a01b0380911690813314908115610e18575b5015610dad57815f526020916004835260405f20825f52835260ff600460405f2001541615610d68575f526004825260405f20905f52815260405f20610d64600282015491600381015490610d40600660ff600484015416920161311e565b91604051958695865285015215156040840152608060608401526080830190613031565b0390f35b60405162461bcd60e51b815260048101849052601760248201527f4772616465206e6f74207075626c6973686564207965740000000000000000006044820152606490fd5b60405162461bcd60e51b815260206004820152602660248201527f4f6e6c792073747564656e74206f7220746561636865722063616e207669657760448201527f20677261646500000000000000000000000000000000000000000000000000006064820152608490fd5b9050825f526001602052600360405f20015416331483610ce1565b505f54821115610cc1565b3461079857604036600319011261079857600435610e5a612ff0565b9080151580610fa4575b610e6d9061326f565b805f526020600181526001600160a01b03610e9281600360405f2001541633146132bb565b825f526003825260405f20931692835f52815260ff600660405f2001541615610f6057815f526004815260405f20835f52815260ff600460405f20015416610f1c57815f526004815260405f2090835f5252600460405f2001600160ff198254161790557f38561fa7fd97c0200c1850652b561f923fed46cfd850a743265e0301d95a1e065f80a3005b6064906040519062461bcd60e51b82526004820152601160248201527f416c7265616479207075626c69736865640000000000000000000000000000006044820152fd5b6064906040519062461bcd60e51b82526004820152600e60248201527f4e6f7420677261646564207965740000000000000000000000000000000000006044820152fd5b505f54811115610e64565b3461079857604036600319011261079857600435610fcb6131c0565b9080151580611109575b610fde9061326f565b805f526001916020916001835261100160ff600760405f20015460081c16613379565b5f526002825260ff60405f2091165f52815260405f209160ff600184015460081c1691611034600260038601950161311e565b90845491611041836130ce565b9261104f60405194856130ac565b80845282840180975f52835f205f915b8383106110e6575050505061108b9061107b60405180976131d0565b6060838701526060860190613031565b918483036040860152519081835280830192818360051b82010196935f915b8483106110b75787890388f35b90919293949584806110d4839b601f198682030187528a51613031565b9a9801969594919091019201906110aa565b90878087819c9a95946110f88561311e565b81520192019201925098969861105f565b505f54811115610fd5565b34610798576020366003190112610798576001600160a01b03611135613006565b165f526005602052602060ff60405f2054166040519015158152f35b34610798576020806003193601126107985760043580151580611356575b6111789061326f565b805f52600190600183526001600160a01b039160036111a184600360405f2001541633146132bb565b825f526006926006865260405f206040518082898294549384815201905f52895f20925f5b888c83831061133f57505050506111df925003826130ac565b8051156112fa57908395949392916111f5613825565b955f955f985b61126f575b5050505050509091501561122a5761121830826137be565b61122233826137be565b604051908152f35b60405162461bcd60e51b815260048101839052601560248201527f4e6f20677261646564207375626d697373696f6e7300000000000000000000006044820152606490fd5b82518910156112f557835f52848a5260405f208261128d8b866133c5565b51165f528a528960ff8260405f200154166112ae575b5097850197856111fb565b6112e96112e38b9a899a9c8a94895f528a8152876112d060405f20938b6133c5565b51165f5252600560405f2001549061362d565b9a61344b565b975050899897986112a3565b611200565b60405162461bcd60e51b815260048101889052601360248201527f4e6f2073747564656e747320696e206578616d000000000000000000000000006044820152606490fd5b86548d1685529581019587955090930192016111c6565b505f5481111561116f565b346107985760a03660031901126107985761137a612ff0565b60643567ffffffffffffffff81116107985761139a903690600401613241565b9060843567ffffffffffffffff81116107985761147e6114335f936113c56020943690600401613223565b95600435151580611cd8575b6113da9061326f565b6004358652600185526113fe6001600160a01b0360036040892001541633146132bb565b600435865260038552604086206001600160a01b0389168752855261142c60ff60036040892001541661332d565b36916131dd565b6001600160a01b035f8051602061396283398151915254169060405194858094819363196d0b9b60e01b83526044356004840152336024840152608060448401526084830190613031565b6005606483015203925af190811561078d575f91611ca6575b506001600160a01b037f9e7b61f58c47dc699ac88507c4f5bb9f121c03808c5676a8078fe583e46497005416803b1561079857604051630f8e573b60e21b815260048101839052336024820152905f908290604490829084905af1801561078d57611c97575b505f60206001600160a01b035f805160206139628339815191525416604460405180948193639cd07acb60e01b8352605a6004840152600560248401525af1801561078d575f90611c65575b5f915060206001600160a01b035f805160206139628339815191525416604460405180958193639cd07acb60e01b835260506004840152600560248401525af191821561078d575f92611c31575b505f9060206001600160a01b035f805160206139628339815191525416604460405180958193639cd07acb60e01b835260466004840152600560248401525af1801561078d575f90611bff575b5f925060206001600160a01b035f805160206139628339815191525416604460405180968193639cd07acb60e01b8352603c6004840152600560248401525af191821561078d578486945f94611bc0575b509161166661168861168161166c8561166661165f5f9961165961168f9a8e61346f565b9c61346f565b918d613523565b906135a8565b9861166661167a868d61346f565b918c613523565b958961346f565b9188613523565b9160206001600160a01b035f805160206139628339815191525416604460405180958193639cd07acb60e01b8352816004840152600260248401525af191821561078d575f92611b8c575b505f919260206001600160a01b035f805160206139628339815191525416604460405180968193639cd07acb60e01b835260016004840152600260248401525af192831561078d575f93611b58575b505f9060206001600160a01b035f805160206139628339815191525416604460405180958193639cd07acb60e01b835260026004840152600260248401525af191821561078d575f92611b24575b505f9060206001600160a01b035f805160206139628339815191525416604460405180958193639cd07acb60e01b835260036004840152600260248401525af190811561078d575f91611af0575b5f925060206001600160a01b035f805160206139628339815191525416604460405180968193639cd07acb60e01b8352600480840152600260248401525af192831561078d575f93611aae575b5092610b44610b449361182b9a9693610b44989661390e565b91604051906118398261307c565b60043582526001600160a01b03851660208301528260408301528360608301525f60808301524260a083015260c08201526004355f52600460205260405f206001600160a01b0385165f5260205260c060405f209180518355600183016001600160a01b0360208301511673ffffffffffffffffffffffffffffffffffffffff1982541617905560408101516002840155606081015160038401556118f360808201511515600485019060ff801983541691151516179055565b60a08101516005840155015180519067ffffffffffffffff821161063a5761191e60068401546130e6565b601f8111611a7b575b50602090601f8311600114611a0657611962836119c79796946119b396946006945f926119fb5750508160011b915f199060031b1c19161790565b9101555b6004355f9081526003602090815260408083206001600160a01b0389168452909152902060058101829055600601805460ff191660011790556119a930826137be565b6104f485826137be565b6119bd30826137be565b6104f483826137be565b6001600160a01b033391166004357fa35d37dcd82f9b14b272047e103ec827a193dc4ee9c87f2494dea154c77a6f735f80a4005b015190508a80610442565b90600684015f5260205f20915f5b601f1985168110611a635750836119b395936006936001936119c79a9997601f19811610611a4b575b505050811b01910155611966565b01515f1960f88460031b161c19169055898080611a3d565b91926020600181928685015181550194019201611a14565b611aa890600685015f5260205f20601f850160051c8101916020861061063057601f0160051c0190613459565b86611927565b989491925094926020893d602011611ae8575b81611ace602093836130ac565b810103126107985797519397929490939190610b44611812565b3d9150611ac1565b90506020823d602011611b1c575b81611b0b602093836130ac565b81010312610798575f9151906117c5565b3d9150611afe565b9091506020813d602011611b50575b81611b40602093836130ac565b810103126107985751905f611777565b3d9150611b33565b9092506020813d602011611b84575b81611b74602093836130ac565b810103126107985751915f611729565b3d9150611b67565b91506020823d602011611bb8575b81611ba7602093836130ac565b81010312610798575f9151916116da565b3d9150611b9a565b9450509091506020833d602011611bf7575b81611bdf602093836130ac565b81010312610798579151849290919084611666611635565b3d9150611bd2565b506020823d602011611c29575b81611c19602093836130ac565b81010312610798575f91516115e4565b3d9150611c0c565b9091506020813d602011611c5d575b81611c4d602093836130ac565b810103126107985751905f611597565b3d9150611c40565b506020813d602011611c8f575b81611c7f602093836130ac565b81010312610798575f9051611549565b3d9150611c72565b611ca090613098565b836114fd565b90506020813d602011611cd0575b81611cc1602093836130ac565b81010312610798575183611497565b3d9150611cb4565b50855460043511156113d1565b3461079857604036600319011261079857611cfe612ff0565b6004355f52600460205260405f206001600160a01b038092165f52602052610d6460405f2080549260018201541693600282015491600381015460ff60048301541690611d5260066005850154940161311e565b9460405198899889526020890152604088015260608701521515608086015260a08501528060c0850152830190613031565b3461079857606036600319011261079857600435611da0612ff0565b60443560ff8116918282036107985783151580611e9d575b611dc19061326f565b835f52602093600185526001600160a01b0393600394611dea818760405f2001541633146132bb565b825f5285875260405f20931692835f528652611e0e60ff8660405f2001541661332d565b815f5284865260405f20835f528652600460405f2001541115611e585790611e4b92915f5283855260405f20905f528452600460405f200161301c565b9054911b1c604051908152f35b60405162461bcd60e51b815260048101869052601460248201527f496e76616c696420616e7377657220696e6465780000000000000000000000006044820152606490fd5b505f54841115611db8565b346107985760c03660031901126107985760043567ffffffffffffffff811161079857611ed9903690600401613223565b60243567ffffffffffffffff811161079857611ef9903690600401613223565b60443560643560843590335f526005602052611f1b60ff60405f2054166133d9565b4283111561232557828111156122d657811561229157611f3b5f5461344b565b92835f5560405194610160860186811067ffffffffffffffff82111761063a576040528486528660208701526040860152336060860152608085015260a084015260c08301525f848301525f6101008301525f61012083015260a4356101408301525f52600160205260405f209080518255602081015180519067ffffffffffffffff821161063a57611fd160018501546130e6565b601f811161225e575b50602090601f83116001146121f05761200992915f91836106be5750508160011b915f199060031b1c19161790565b60018301555b604081015180519067ffffffffffffffff821161063a5761203360028501546130e6565b601f81116121bd575b50602090601f83116001146121535761206b92915f91836106be5750508160011b915f199060031b1c19161790565b60028301555b600382016001600160a01b0360608301511673ffffffffffffffffffffffffffffffffffffffff198254161790556080810151600483015560a0810151600583015560c0810151600683015560ff60078301948201511684549161010081015115159561012082015193600485101561076a5760209761ff006101409562ff000060089860101b169362ffffff19161791871b161717905501519101555f5490817f9fdd4cdb87d89fe489fa6b56a826f7b0099a758ac1866132cb491bc9145f554b60405185815280612148339588830190613031565b0390a3604051908152f35b90601f19831691600286015f5260205f20925f5b8181106121a5575090846001959493921061218d575b505050811b016002830155612071565b01515f1960f88460031b161c1916905586808061217d565b92936020600181928786015181550195019301612167565b6121ea90600286015f5260205f20601f850160051c8101916020861061063057601f0160051c0190613459565b8661203c565b9190600185015f5260205f20905f935b601f1984168510612243576001945083601f1981161061222b575b505050811b01600183015561200f565b01515f1960f88460031b161c1916905586808061221b565b81810151835560209485019460019093019290910190612200565b61228b90600186015f5260205f20601f850160051c8101916020861061063057601f0160051c0190613459565b86611fda565b60405162461bcd60e51b815260206004820152601960248201527f4475726174696f6e206d75737420626520706f736974697665000000000000006044820152606490fd5b60405162461bcd60e51b815260206004820152602160248201527f456e642074696d65206d7573742062652061667465722073746172742074696d6044820152606560f81b6064820152608490fd5b606460405162461bcd60e51b815260206004820152602060248201527f53746172742074696d65206d75737420626520696e20746865206675747572656044820152fd5b34610798576020366003190112610798576001600160a01b0361238a613006565b335f5260056020526123a260ff60405f2054166133d9565b165f908152600560205260409020805460ff19166001179055005b34610798576040366003190112610798576123d66131c0565b6004355f52600260205260ff60405f2091165f5260205260405f2080546001820154916124056002820161311e565b6124486005600484015493015491612437604051968796875260ff8116602088015260ff604088019160081c166131d0565b60c0606086015260c0850190613031565b91608084015260a08301520390f35b34610798576020366003190112610798576004355f52600160205260405f20908154906124866001840161311e565b9261252d6124966002830161311e565b916001600160a01b0360038201541693600482015460058301546006840154916124f060086007870154960154976124e26040519c8d809d6020610160928392815201528d0190613031565b908b820360408d0152613031565b9760608a0152608089015260a088015260c087015260ff82169086015260ff8160081c16151561010086015260ff61012086019160101c1661306f565b6101408301520390f35b3461079857602080600319360112610798576004359081151580612686575b61255f9061326f565b815f52600181526125816001600160a01b03600360405f2001541633146132bb565b815f526001815260ff600760405f20015460081c1661264257815f526001815260ff600760405f20015416156125f257600190825f5252600760405f200161010061ff00198254161790557f3d1af7081359bf0d34aac080caa8453bef4a884ad85bc000fff0952a0b1adde95f80a2005b6084906040519062461bcd60e51b825260048201526024808201527f4578616d206d7573742068617665206174206c65617374206f6e6520717565736044820152633a34b7b760e11b6064820152fd5b6064906040519062461bcd60e51b82526004820152601660248201527f4578616d20616c7265616479207075626c6973686564000000000000000000006044820152fd5b505f54821115612556565b346107985760603660031901126107985760243567ffffffffffffffff81116107985736602382011215610798578060040135906126ce826130ce565b916126dc60405193846130ac565b8083526024602084019160051b8301019136831161079857602401905b828210612c64578367ffffffffffffffff60443511610798573660236044350112156107985767ffffffffffffffff6044356004013511610798573660246044356004013560051b60443501011161079857600435151580612c57575b61275f9061326f565b6004355f526001602052600460405f2001544210612c12576004355f526001602052600560405f2001544211612bcd576004355f5260016020526127af60ff600760405f20015460081c16613379565b6004355f52600360205260405f20335f5260205260ff600360405f20015416612b885780516004355f52600160205260ff600760405f2001541603612b435780516044356004013503612afe57805190612808826130ce565b9161281660405193846130ac565b808352612825601f19916130ce565b013660208401375f5b81518110156129295761284181836133c5565b5190604435600401358110156129155760248160051b604435010135604219604435360301811215610798576044350167ffffffffffffffff60248201351161079857602481013536036044820113610798576001926128ae6128b49236906044602482013591016131dd565b906136b2565b6128be82866133c5565b526128d3306128cd83876133c5565b516137be565b6128e1336128cd83876133c5565b61290f6128ee82866133c5565b516004355f52836020526001600160a01b03600360405f20015416906137be565b0161282e565b634e487b7160e01b5f52603260045260245ffd5b82612932613825565b90604051906129408261307c565b600435825233602083015242604083015260016060830152608082015260a0810191825260c081015f81526004355f52600360205260405f20335f5260205260405f20908251825560018201936001600160a01b03948560208601511673ffffffffffffffffffffffffffffffffffffffff19825416179055604084015160028401556129e260608501511515600385019060ff801983541691151516179055565b6080600484019401519384519067ffffffffffffffff821161063a57680100000000000000009586831161063a578154838355808410612ad8575b50602001905f5260205f205f5b838110612ac4578888612a578960068a8a51600584015551151591019060ff801983541691151516179055565b6004355f52600660205260405f209081549081101561063a57612a7f9160018201815561301c565b819291549060031b9133831b921b191617905560405142815233907fdfe6387d112c4709ab9b53e5ff9aad5e1bc6a7c01fe4235148c0dda3a873c69d602060043592a3005b600190602084519401938184015501612a2a565b825f528360205f2091820191015b818110612af35750612a1d565b5f8155600101612ae6565b60405162461bcd60e51b815260206004820152601460248201527f50726f6f6620636f756e74206d69736d617463680000000000000000000000006044820152606490fd5b60405162461bcd60e51b815260206004820152601560248201527f416e7377657220636f756e74206d69736d6174636800000000000000000000006044820152606490fd5b60405162461bcd60e51b815260206004820152601160248201527f416c7265616479207375626d69747465640000000000000000000000000000006044820152606490fd5b60405162461bcd60e51b815260206004820152600e60248201527f4578616d2068617320656e6465640000000000000000000000000000000000006044820152606490fd5b60405162461bcd60e51b815260206004820152601860248201527f4578616d20686173206e6f7420737461727465642079657400000000000000006044820152606490fd5b505f546004351115612756565b81358152602091820191016126f9565b3461079857604036600319011261079857600435612c90612ff0565b81151580612d0d575b612ca29061326f565b815f52602091600183526001600160a01b03612cc881600360405f2001541633146132bb565b815f526003845260405f20921691825f528352612cee60ff600360405f2001541661332d565b5f526003825260405f20905f528152600460405f200154604051908152f35b505f54821115612c99565b346107985760403660031901126107985760c0612d33612ff0565b6004355f52600360205260405f206001600160a01b038092165f5260205260405f2080549160018201541690600281015460ff6003830154169060ff60066005850154940154169360405195865260208601526040850152151560608401526080830152151560a0820152f35b34610798576020806003193601126107985760043580151580612e78575b612dca9092919261326f565b815f5260018082526001600160a01b0392612def84600360405f2001541633146132bb565b5f526006825260405f20926040518084865491828152019081965f52855f20905f5b818110612e635750505081612e279103826130ac565b6040519380850191818652518092526040850195925f905b838210612e4c5786880387f35b845181168852968201969382019390850190612e3f565b82548616845292870192918601918601612e11565b505f54811115612dbe565b3461079857602036600319011261079857612f119060043580151580612f5b575b612ead9061326f565b5f52600160205260405f2090610d646001600160a01b03600384015416916004840154906005850154600686015490600787015493612f1f612efd6002612ef660018c0161311e565b9a0161311e565b6040519a8b9a610120808d528c0190613031565b908a820360208c0152613031565b9660408901526060880152608087015260a086015260ff821660c086015260ff8260081c1615159085015260ff61010085019160101c1661306f565b505f54811115612ea4565b34610798576040366003190112610798576024356004355f52600660205260405f2090815481101561079857612fa66001600160a01b039160209361301c565b9190546040519260031b1c168152f35b3461079857604036600319011261079857602090612fd2612ff0565b506004355f526001825260ff600760405f20015460081c1615158152f35b602435906001600160a01b038216820361079857565b600435906001600160a01b038216820361079857565b8054821015612915575f5260205f2001905f90565b91908251928382525f5b84811061305b575050825f602080949584010152601f8019910116010190565b60208183018101518483018201520161303b565b90600482101561076a5752565b60e0810190811067ffffffffffffffff82111761063a57604052565b67ffffffffffffffff811161063a57604052565b90601f8019910116810190811067ffffffffffffffff82111761063a57604052565b67ffffffffffffffff811161063a5760051b60200190565b90600182811c92168015613114575b602083101461310057565b634e487b7160e01b5f52602260045260245ffd5b91607f16916130f5565b9060405191825f8254613130816130e6565b908184526020946001916001811690815f1461319e5750600114613160575b50505061315e925003836130ac565b565b5f90815285812095935091905b81831061318657505061315e93508201015f808061314f565b8554888401850152948501948794509183019161316d565b9250505061315e94925060ff191682840152151560051b8201015f808061314f565b6024359060ff8216820361079857565b90600382101561076a5752565b92919267ffffffffffffffff821161063a5760405191613207601f8201601f1916602001846130ac565b829481845281830111610798578281602093845f960137010152565b9080601f830112156107985781602061323e933591016131dd565b90565b9181601f840112156107985782359167ffffffffffffffff8311610798576020838186019501011161079857565b1561327657565b60405162461bcd60e51b815260206004820152601360248201527f4578616d20646f6573206e6f74206578697374000000000000000000000000006044820152606490fd5b156132c257565b60405162461bcd60e51b815260206004820152602960248201527f4f6e6c79206578616d2063726561746f722063616e20706572666f726d20746860448201527f697320616374696f6e00000000000000000000000000000000000000000000006064820152608490fd5b1561333457565b60405162461bcd60e51b815260206004820152601960248201527f53747564656e7420686173206e6f74207375626d6974746564000000000000006044820152606490fd5b1561338057565b60405162461bcd60e51b815260206004820152601560248201527f4578616d206973206e6f74207075626c697368656400000000000000000000006044820152606490fd5b80518210156129155760209160051b010190565b156133e057565b60405162461bcd60e51b815260206004820152603060248201527f4f6e6c7920617574686f72697a65642074656163686572732063616e2070657260448201527f666f726d207468697320616374696f6e000000000000000000000000000000006064820152608490fd5b5f1981146105075760010190565b818110613464575050565b5f8155600101613459565b908115613513575b8015613501575b60209060646001600160a01b035f805160206139628339815191525416935f6040519586948593631391547f60e01b8552600485015260248401528160448401525af190811561078d575f916134d2575090565b90506020813d6020116134f9575b816134ed602093836130ac565b81010312610798575190565b3d91506134e0565b50602061350c613825565b905061347e565b905061351d613825565b90613477565b908115613598575b8015613586575b60209060646001600160a01b035f805160206139628339815191525416935f6040519586948593637210768160e01b8552600485015260248401528160448401525af190811561078d575f916134d2575090565b506020613591613825565b9050613532565b90506135a2613825565b9061352b565b90811561361d575b801561360b575b60209060646001600160a01b035f805160206139628339815191525416935f604051958694859363d99882d560e01b8552600485015260248401528160448401525af190811561078d575f916134d2575090565b5060206136166138c1565b90506135b7565b90506136276138c1565b906135b0565b9081156136a2575b8015613690575b60209060646001600160a01b035f805160206139628339815191525416935f604051958694859363022f65e760e31b8552600485015260248401528160448401525af190811561078d575f916134d2575090565b50602061369b613825565b905061363c565b90506136ac613825565b90613635565b91906020613705916001600160a01b0394855f805160206139628339815191525416905f60405180968195829463196d0b9b60e01b84526004840152336024840152608060448401526084830190613031565b6004606483015203925af190811561078d575f9161378c575b5080927f9e7b61f58c47dc699ac88507c4f5bb9f121c03808c5676a8078fe583e46497005416803b1561079857604051630f8e573b60e21b815260048101929092523360248301525f908290818381604481015b03925af1801561078d576137835750565b61315e90613098565b90506020813d6020116137b6575b816137a7602093836130ac565b8101031261079857515f61371e565b3d915061379a565b6001600160a01b037f9e7b61f58c47dc699ac88507c4f5bb9f121c03808c5676a8078fe583e4649700541691823b1561079857604051635ca4b5b160e11b815260048101929092526001600160a01b03166024820152905f90829081838160448101613772565b5f60206001600160a01b035f805160206139628339815191525416604460405180948193639cd07acb60e01b8352816004840152600560248401525af190811561078d575f916134d2575090565b5f60206001600160a01b035f805160206139628339815191525416604460405180948193639cd07acb60e01b8352816004840152600460248401525af190811561078d575f916134d2575090565b5f60206001600160a01b035f805160206139628339815191525416604460405180948193639cd07acb60e01b83528160048401528160248401525af190811561078d575f916134d2575090565b9060646020925f6001600160a01b035f8051602061396283398151915254166040519687958694637702dcff60e01b86526004860152602485015260448401525af190811561078d575f916134d257509056fe9e7b61f58c47dc699ac88507c4f5bb9f121c03808c5676a8078fe583e4649701a164736f6c6343000818000a",
  "devdoc": {
    "author": "AnonExam Team",
    "kind": "dev",
    "methods": {
      "addQuestion(uint256,uint8,string,string[],bytes32,bytes,bytes32,bytes)": {
        "params": {
          "correctAnswerInput": "",
          "correctAnswerProof": "",
          "examId": "ID",
          "options": "",
          "pointsInput": "",
          "pointsProof": "",
          "questionText": "",
          "questionType": ""
        }
      },
      "authorizeTeacher(address)": {
        "params": {
          "teacher": ""
        }
      },
      "autoGradeMultipleChoice(uint256,address)": {
        "params": {
          "examId": "ID",
          "student": ""
        }
      },
      "calculateClassAverage(uint256)": {
        "params": {
          "examId": "ID"
        }
      },
      "createExam(string,string,uint256,uint256,uint256,uint256)": {
        "params": {
          "description": "",
          "duration": "()",
          "endTime": "",
          "maxScore": "",
          "startTime": "",
          "title": ""
        }
      },
      "getExamInfo(uint256)": {
        "params": {
          "examId": "ID"
        }
      },
      "getExamStudents(uint256)": {
        "params": {
          "examId": "ID"
        }
      },
      "getQuestionInfo(uint256,uint8)": {
        "params": {
          "examId": "ID",
          "questionIndex": ""
        }
      },
      "getStudentAnswer(uint256,address,uint8)": {
        "params": {
          "answerIndex": "",
          "examId": "ID",
          "student": ""
        }
      },
      "getStudentAnswerCount(uint256,address)": {
        "params": {
          "examId": "ID",
          "student": ""
        }
      },
      "getStudentGrade(uint256,address)": {
        "params": {
          "examId": "ID",
          "student": ""
        }
      },
      "getSubmissionStatus(uint256,address)": {
        "params": {
          "examId": "ID",
          "student": ""
        }
      },
      "hasAccessToExam(uint256,address)": {
        "params": {
          "examId": "ID",
          "student": ""
        }
      },
      "manualGrade(uint256,address,bytes32,bytes,string)": {
        "params": {
          "comment": "",
          "examId": "ID",
          "scoreInput": "",
          "scoreProof": "",
          "student": ""
        }
      },
      "publishExam(uint256)": {
        "params": {
          "examId": "ID"
        }
      },
      "publishGrade(uint256,address)": {
        "params": {
          "examId": "ID",
          "student": ""
        }
      },
      "submitAnswers(uint256,bytes32[],bytes[])": {
        "params": {
          "answersProof": "",
          "encryptedAnswersInput": "",
          "examId": "ID"
        }
      }
    },
    "title": "AnonExam - Anonymous Encrypted Online Exam Platform",
    "version": 1
  },
  "userdoc": {
    "kind": "user",
    "methods": {
      "addQuestion(uint256,uint8,string,string[],bytes32,bytes,bytes32,bytes)": {
        "notice": ""
      },
      "authorizeTeacher(address)": {
        "notice": ""
      },
      "autoGradeMultipleChoice(uint256,address)": {
        "notice": ""
      },
      "calculateClassAverage(uint256)": {
        "notice": ""
      },
      "createExam(string,string,uint256,uint256,uint256,uint256)": {
        "notice": ""
      },
      "getExamInfo(uint256)": {
        "notice": ""
      },
      "getExamStudents(uint256)": {
        "notice": ""
      },
      "getQuestionInfo(uint256,uint8)": {
        "notice": ""
      },
      "getStudentAnswer(uint256,address,uint8)": {
        "notice": ""
      },
      "getStudentAnswerCount(uint256,address)": {
        "notice": ""
      },
      "getStudentGrade(uint256,address)": {
        "notice": ""
      },
      "getSubmissionStatus(uint256,address)": {
        "notice": ""
      },
      "getTotalExams()": {
        "notice": ""
      },
      "hasAccessToExam(uint256,address)": {
        "notice": ""
      },
      "manualGrade(uint256,address,bytes32,bytes,string)": {
        "notice": ""
      },
      "publishExam(uint256)": {
        "notice": ""
      },
      "publishGrade(uint256,address)": {
        "notice": ""
      },
      "submitAnswers(uint256,bytes32[],bytes[])": {
        "notice": ""
      }
    },
    "notice": "A decentralized exam platform using FHEVM for privacy-preserving education",
    "version": 1
  },
  "storageLayout": {
    "storage": [
      {
        "astId": 39130,
        "contract": "contracts/AnonExam.sol:AnonExam",
        "label": "examCounter",
        "offset": 0,
        "slot": "0",
        "type": "t_uint256"
      },
      {
        "astId": 39135,
        "contract": "contracts/AnonExam.sol:AnonExam",
        "label": "exams",
        "offset": 0,
        "slot": "1",
        "type": "t_mapping(t_uint256,t_struct(Exam)39074_storage)"
      },
      {
        "astId": 39142,
        "contract": "contracts/AnonExam.sol:AnonExam",
        "label": "questions",
        "offset": 0,
        "slot": "2",
        "type": "t_mapping(t_uint256,t_mapping(t_uint8,t_struct(Question)39093_storage))"
      },
      {
        "astId": 39149,
        "contract": "contracts/AnonExam.sol:AnonExam",
        "label": "submissions",
        "offset": 0,
        "slot": "3",
        "type": "t_mapping(t_uint256,t_mapping(t_address,t_struct(Submission)39111_storage))"
      },
      {
        "astId": 39156,
        "contract": "contracts/AnonExam.sol:AnonExam",
        "label": "grades",
        "offset": 0,
        "slot": "4",
        "type": "t_mapping(t_uint256,t_mapping(t_address,t_struct(Grade)39128_storage))"
      },
      {
        "astId": 39160,
        "contract": "contracts/AnonExam.sol:AnonExam",
        "label": "authorizedTeachers",
        "offset": 0,
        "slot": "5",
        "type": "t_mapping(t_address,t_bool)"
      },
      {
        "astId": 39165,
        "contract": "contracts/AnonExam.sol:AnonExam",
        "label": "examStudents",
        "offset": 0,
        "slot": "6",
        "type": "t_mapping(t_uint256,t_array(t_address)dyn_storage)"
      },
      {
        "astId": 39171,
        "contract": "contracts/AnonExam.sol:AnonExam",
        "label": "studentExamAccess",
        "offset": 0,
        "slot": "7",
        "type": "t_mapping(t_address,t_mapping(t_uint256,t_bool))"
      }
    ],
    "types": {
      "t_address": {
        "encoding": "inplace",
        "label": "address",
        "numberOfBytes": "20"
      },
      "t_array(t_address)dyn_storage": {
        "base": "t_address",
        "encoding": "dynamic_array",
        "label": "address[]",
        "numberOfBytes": "32"
      },
      "t_array(t_string_storage)dyn_storage": {
        "base": "t_string_storage",
        "encoding": "dynamic_array",
        "label": "string[]",
        "numberOfBytes": "32"
      },
      "t_array(t_userDefinedValueType(euint32)40662)dyn_storage": {
        "base": "t_userDefinedValueType(euint32)40662",
        "encoding": "dynamic_array",
        "label": "euint32[]",
        "numberOfBytes": "32"
      },
      "t_bool": {
        "encoding": "inplace",
        "label": "bool",
        "numberOfBytes": "1"
      },
      "t_enum(ExamStatus)39046": {
        "encoding": "inplace",
        "label": "enum AnonExam.ExamStatus",
        "numberOfBytes": "1"
      },
      "t_enum(QuestionType)39050": {
        "encoding": "inplace",
        "label": "enum AnonExam.QuestionType",
        "numberOfBytes": "1"
      },
      "t_mapping(t_address,t_bool)": {
        "encoding": "mapping",
        "key": "t_address",
        "label": "mapping(address => bool)",
        "numberOfBytes": "32",
        "value": "t_bool"
      },
      "t_mapping(t_address,t_mapping(t_uint256,t_bool))": {
        "encoding": "mapping",
        "key": "t_address",
        "label": "mapping(address => mapping(uint256 => bool))",
        "numberOfBytes": "32",
        "value": "t_mapping(t_uint256,t_bool)"
      },
      "t_mapping(t_address,t_struct(Grade)39128_storage)": {
        "encoding": "mapping",
        "key": "t_address",
        "label": "mapping(address => struct AnonExam.Grade)",
        "numberOfBytes": "32",
        "value": "t_struct(Grade)39128_storage"
      },
      "t_mapping(t_address,t_struct(Submission)39111_storage)": {
        "encoding": "mapping",
        "key": "t_address",
        "label": "mapping(address => struct AnonExam.Submission)",
        "numberOfBytes": "32",
        "value": "t_struct(Submission)39111_storage"
      },
      "t_mapping(t_uint256,t_array(t_address)dyn_storage)": {
        "encoding": "mapping",
        "key": "t_uint256",
        "label": "mapping(uint256 => address[])",
        "numberOfBytes": "32",
        "value": "t_array(t_address)dyn_storage"
      },
      "t_mapping(t_uint256,t_bool)": {
        "encoding": "mapping",
        "key": "t_uint256",
        "label": "mapping(uint256 => bool)",
        "numberOfBytes": "32",
        "value": "t_bool"
      },
      "t_mapping(t_uint256,t_mapping(t_address,t_struct(Grade)39128_storage))": {
        "encoding": "mapping",
        "key": "t_uint256",
        "label": "mapping(uint256 => mapping(address => struct AnonExam.Grade))",
        "numberOfBytes": "32",
        "value": "t_mapping(t_address,t_struct(Grade)39128_storage)"
      },
      "t_mapping(t_uint256,t_mapping(t_address,t_struct(Submission)39111_storage))": {
        "encoding": "mapping",
        "key": "t_uint256",
        "label": "mapping(uint256 => mapping(address => struct AnonExam.Submission))",
        "numberOfBytes": "32",
        "value": "t_mapping(t_address,t_struct(Submission)39111_storage)"
      },
      "t_mapping(t_uint256,t_mapping(t_uint8,t_struct(Question)39093_storage))": {
        "encoding": "mapping",
        "key": "t_uint256",
        "label": "mapping(uint256 => mapping(uint8 => struct AnonExam.Question))",
        "numberOfBytes": "32",
        "value": "t_mapping(t_uint8,t_struct(Question)39093_storage)"
      },
      "t_mapping(t_uint256,t_struct(Exam)39074_storage)": {
        "encoding": "mapping",
        "key": "t_uint256",
        "label": "mapping(uint256 => struct AnonExam.Exam)",
        "numberOfBytes": "32",
        "value": "t_struct(Exam)39074_storage"
      },
      "t_mapping(t_uint8,t_struct(Question)39093_storage)": {
        "encoding": "mapping",
        "key": "t_uint8",
        "label": "mapping(uint8 => struct AnonExam.Question)",
        "numberOfBytes": "32",
        "value": "t_struct(Question)39093_storage"
      },
      "t_string_storage": {
        "encoding": "bytes",
        "label": "string",
        "numberOfBytes": "32"
      },
      "t_struct(Exam)39074_storage": {
        "encoding": "inplace",
        "label": "struct AnonExam.Exam",
        "members": [
          {
            "astId": 39052,
            "contract": "contracts/AnonExam.sol:AnonExam",
            "label": "examId",
            "offset": 0,
            "slot": "0",
            "type": "t_uint256"
          },
          {
            "astId": 39054,
            "contract": "contracts/AnonExam.sol:AnonExam",
            "label": "title",
            "offset": 0,
            "slot": "1",
            "type": "t_string_storage"
          },
          {
            "astId": 39056,
            "contract": "contracts/AnonExam.sol:AnonExam",
            "label": "description",
            "offset": 0,
            "slot": "2",
            "type": "t_string_storage"
          },
          {
            "astId": 39058,
            "contract": "contracts/AnonExam.sol:AnonExam",
            "label": "teacher",
            "offset": 0,
            "slot": "3",
            "type": "t_address"
          },
          {
            "astId": 39060,
            "contract": "contracts/AnonExam.sol:AnonExam",
            "label": "startTime",
            "offset": 0,
            "slot": "4",
            "type": "t_uint256"
          },
          {
            "astId": 39062,
            "contract": "contracts/AnonExam.sol:AnonExam",
            "label": "endTime",
            "offset": 0,
            "slot": "5",
            "type": "t_uint256"
          },
          {
            "astId": 39064,
            "contract": "contracts/AnonExam.sol:AnonExam",
            "label": "duration",
            "offset": 0,
            "slot": "6",
            "type": "t_uint256"
          },
          {
            "astId": 39066,
            "contract": "contracts/AnonExam.sol:AnonExam",
            "label": "questionCount",
            "offset": 0,
            "slot": "7",
            "type": "t_uint8"
          },
          {
            "astId": 39068,
            "contract": "contracts/AnonExam.sol:AnonExam",
            "label": "isPublished",
            "offset": 1,
            "slot": "7",
            "type": "t_bool"
          },
          {
            "astId": 39071,
            "contract": "contracts/AnonExam.sol:AnonExam",
            "label": "status",
            "offset": 2,
            "slot": "7",
            "type": "t_enum(ExamStatus)39046"
          },
          {
            "astId": 39073,
            "contract": "contracts/AnonExam.sol:AnonExam",
            "label": "maxScore",
            "offset": 0,
            "slot": "8",
            "type": "t_uint256"
          }
        ],
        "numberOfBytes": "288"
      },
      "t_struct(Grade)39128_storage": {
        "encoding": "inplace",
        "label": "struct AnonExam.Grade",
        "members": [
          {
            "astId": 39113,
            "contract": "contracts/AnonExam.sol:AnonExam",
            "label": "examId",
            "offset": 0,
            "slot": "0",
            "type": "t_uint256"
          },
          {
            "astId": 39115,
            "contract": "contracts/AnonExam.sol:AnonExam",
            "label": "student",
            "offset": 0,
            "slot": "1",
            "type": "t_address"
          },
          {
            "astId": 39118,
            "contract": "contracts/AnonExam.sol:AnonExam",
            "label": "encryptedScore",
            "offset": 0,
            "slot": "2",
            "type": "t_userDefinedValueType(euint64)40670"
          },
          {
            "astId": 39121,
            "contract": "contracts/AnonExam.sol:AnonExam",
            "label": "encryptedGradeLevel",
            "offset": 0,
            "slot": "3",
            "type": "t_userDefinedValueType(euint8)40656"
          },
          {
            "astId": 39123,
            "contract": "contracts/AnonExam.sol:AnonExam",
            "label": "isPublished",
            "offset": 0,
            "slot": "4",
            "type": "t_bool"
          },
          {
            "astId": 39125,
            "contract": "contracts/AnonExam.sol:AnonExam",
            "label": "gradedTime",
            "offset": 0,
            "slot": "5",
            "type": "t_uint256"
          },
          {
            "astId": 39127,
            "contract": "contracts/AnonExam.sol:AnonExam",
            "label": "teacherComment",
            "offset": 0,
            "slot": "6",
            "type": "t_string_storage"
          }
        ],
        "numberOfBytes": "224"
      },
      "t_struct(Question)39093_storage": {
        "encoding": "inplace",
        "label": "struct AnonExam.Question",
        "members": [
          {
            "astId": 39076,
            "contract": "contracts/AnonExam.sol:AnonExam",
            "label": "examId",
            "offset": 0,
            "slot": "0",
            "type": "t_uint256"
          },
          {
            "astId": 39078,
            "contract": "contracts/AnonExam.sol:AnonExam",
            "label": "questionIndex",
            "offset": 0,
            "slot": "1",
            "type": "t_uint8"
          },
          {
            "astId": 39081,
            "contract": "contracts/AnonExam.sol:AnonExam",
            "label": "questionType",
            "offset": 1,
            "slot": "1",
            "type": "t_enum(QuestionType)39050"
          },
          {
            "astId": 39083,
            "contract": "contracts/AnonExam.sol:AnonExam",
            "label": "questionText",
            "offset": 0,
            "slot": "2",
            "type": "t_string_storage"
          },
          {
            "astId": 39086,
            "contract": "contracts/AnonExam.sol:AnonExam",
            "label": "options",
            "offset": 0,
            "slot": "3",
            "type": "t_array(t_string_storage)dyn_storage"
          },
          {
            "astId": 39089,
            "contract": "contracts/AnonExam.sol:AnonExam",
            "label": "correctAnswer",
            "offset": 0,
            "slot": "4",
            "type": "t_userDefinedValueType(euint32)40662"
          },
          {
            "astId": 39092,
            "contract": "contracts/AnonExam.sol:AnonExam",
            "label": "points",
            "offset": 0,
            "slot": "5",
            "type": "t_userDefinedValueType(euint8)40656"
          }
        ],
        "numberOfBytes": "192"
      },
      "t_struct(Submission)39111_storage": {
        "encoding": "inplace",
        "label": "struct AnonExam.Submission",
        "members": [
          {
            "astId": 39095,
            "contract": "contracts/AnonExam.sol:AnonExam",
            "label": "examId",
            "offset": 0,
            "slot": "0",
            "type": "t_uint256"
          },
          {
            "astId": 39097,
            "contract": "contracts/AnonExam.sol:AnonExam",
            "label": "student",
            "offset": 0,
            "slot": "1",
            "type": "t_address"
          },
          {
            "astId": 39099,
            "contract": "contracts/AnonExam.sol:AnonExam",
            "label": "submitTime",
            "offset": 0,
            "slot": "2",
            "type": "t_uint256"
          },
          {
            "astId": 39101,
            "contract": "contracts/AnonExam.sol:AnonExam",
            "label": "isSubmitted",
            "offset": 0,
            "slot": "3",
            "type": "t_bool"
          },
          {
            "astId": 39105,
            "contract": "contracts/AnonExam.sol:AnonExam",
            "label": "encryptedAnswers",
            "offset": 0,
            "slot": "4",
            "type": "t_array(t_userDefinedValueType(euint32)40662)dyn_storage"
          },
          {
            "astId": 39108,
            "contract": "contracts/AnonExam.sol:AnonExam",
            "label": "totalScore",
            "offset": 0,
            "slot": "5",
            "type": "t_userDefinedValueType(euint64)40670"
          },
          {
            "astId": 39110,
            "contract": "contracts/AnonExam.sol:AnonExam",
            "label": "isGraded",
            "offset": 0,
            "slot": "6",
            "type": "t_bool"
          }
        ],
        "numberOfBytes": "224"
      },
      "t_uint256": {
        "encoding": "inplace",
        "label": "uint256",
        "numberOfBytes": "32"
      },
      "t_uint8": {
        "encoding": "inplace",
        "label": "uint8",
        "numberOfBytes": "1"
      },
      "t_userDefinedValueType(euint32)40662": {
        "encoding": "inplace",
        "label": "euint32",
        "numberOfBytes": "32"
      },
      "t_userDefinedValueType(euint64)40670": {
        "encoding": "inplace",
        "label": "euint64",
        "numberOfBytes": "32"
      },
      "t_userDefinedValueType(euint8)40656": {
        "encoding": "inplace",
        "label": "euint8",
        "numberOfBytes": "32"
      }
    }
  }
}